:020000040800F2
:20000000100F0020D9610008AD600008AF600008B1600008B3600008B560000800000000E2
:20002000000000000000000000000000B7600008B960000800000000BB600008BD60000838
:200040000162000805620008096200080D6200081162000815620008196200081D620008D8
:200060002162000825620008296200082D6200083162000835620008396200083D620008B8
:200080004162000845620008496200084D6200085162000855620008596200085D62000898
:2000A0006162000865620008696200086D6200087162000875620008796200087D62000878
:2000C0008162000885620008896200088D6200089162000895620008996200089D62000858
:2000E000A1620008A5620008A9620008AD620008B1620008B5620008B9620008BD62000838
:20010000C1620008C5620008C9620008CD620008D1620008D5620008D9620008DD62000817
:20012000E1620008E5620008E9620008ED620008F1620008F5620008F9620008FD620008F7
:20014000016300080563000809630008C56000080D6300081163000815630008196300082A
:200160001D6300082163000825630008296300082D63000831630008356300080000000073
:20018000396300083D63000881B000F5E0700268914203D343681A44914202D380680028C9
:2001A000F5D101B07047DFF86C17086890B94FF4805048604FF480324FF0FF308A60C860CE
:2001C00008610420DFF85027DFF850374861C2F8BC010B600120704701F1080313F0070F6D
:2001E0000EBF0023C3F1080303F007031944D21A8161C26042F001034B60091D28238B50D9
:20020000DFF810170A69C26170472DE9FC4B074601F1080010F0070F0FBF8946C0F1080083
:2002200000F0070001EB000902F1080111F0070F06D002F10800C0F1080000F007000244F8
:200240001546A5EB090009EB0306A0EB030B43F00303C9F80430AE4228BF01F001FA287982
:20026000C10758BF01F0FCF9BBF1100F38BF01F0F7F9B869854207D1F8685844F860BE61E3
:2002800040F00100706050E1786985420AD1B8688344C7F808B07E614BF00100706046F822
:2002A0000BB042E1686800F00301012940F0AB80C008C0000190C0081F2839D8AC68D5F8FD
:2002C0000C800090454508BF01F0CAF9A54208BF01F0C6F968680099C008C000B0EBC10F43
:2002E00018BF01F0BDF9009907F1280000EBC100844206D03A699442C0F08080E168A94222
:200300007CD1A04506D100983968012282409143396075E0804506D0386980456ED3D8F8E2
:200320000800A8426AD1C4F80C80C8F8084067E0EC68D5F81880AC420CD0A86839698842FA
:2003400022D3C168A94204BFA168A9421CD1C460A0601BE005F11402146834B905F1100254
:2003600014689CB101E01A46146804F114031968002902BF04F1100318680028F3D139696A
:200380008A4228BF106001D201F06AF9B8F1000F36D0E96907F5987000EB81000268954252
:2003A00008D10460A4B9E8697968012282409143796025E03869804508D3D8F81000A842CF
:2003C00014BFC8F81440C8F8104001E001F048F9B4B139698C4211D3C4F81880286928B19C
:2003E000884226BF2061846101F03AF9686938B13969884202D36061846101E001F030F928
:2004000001982D18834468684008400068604BF0010171604FEADB0446F80BB01F2C23D8B2
:2004200007F1280000EBC4084546BBF1100F38BF01F016F9386820FA04F1C90705D401211E
:2004400001FA04F404433C6007E0D8F80800396988422CBF054601F003F9C8F80860EE6002
:20046000B560C6F80C8060E05FEA1B2008BF002123D0B0F5803F28BF1F211ED2A0F580727C
:20048000120C02F008029040A0F58051090C01F004018840A0F580431B0CC2F10E0203F004
:2004A0000203521AD21A984002EBD032D01D2BFA00F101F0010101EB420107F5987202EB00
:2004C0008100F1610022726132617A6822FA01F3DB0707D4012303FA01F11143796006606C
:2004E000B0611DE002681F291DBF4908C1F119010BFA01F1594600E002465068C008C00045
:20050000584516D002F11003CC0F03EB8403490018680028F0D13869834204D31E60B26182
:20052000F660B66001E001F09BF809F10800BDE8F68B396990688A4228BF8842F3D3C660BF
:200540009660B060F2600020B061EEE72DE9FE4F04460F46A5692E46904699463146FFF797
:2005600013FEA8F128020168406801EB000AAAF1270111F007000EBF0021C1F1080101F03B
:2005800007010AEB0100A0F12F0B06F11000834538BFB3460BF118000190394600200090FF
:2005A0002046FFF719FE0BF1080010F0070F18BF01F056F81B20CBF804000BF1080104F598
:2005C000E07090E80C5081E80C500760C0F80480C0F80C9081600198009900E0001D072202
:2005E0004260491C00F108025245F7D30129D8BF01F036F8B34500F09A80ABEB060B301DC2
:20060000311D50F80B004008400041F80B004BF0010171604FEADB0746F80BB01F2F22D803
:2006200004EBC70000F12805A846BBF1100F38BF01F016F8206820FA07F1C90705D40121D2
:2006400001FA07F70743276006E0A868216988422CBF804601F004F8AE60C8F80C60C6F8F0
:200660000880F56070E05FEA1B2008BF002123D0B0F5803F28BF1F211ED2A0F58072120CCE
:2006800002F008029040A0F58051090C01F004018840A0F580431B0CC2F10E0203F002031B
:2006A000521AD21A984002EBD032D01D2BFA00F101F0010101EB420104EB8102002302F56A
:2006C0009870F16173613361626822FA01F3DB0707D4012303FA01F1114361600660B06122
:2006E0001DE002681F291DBF4908C1F119010BFA01F1594600E002465068C008C0005845B7
:2007000016D002F11003CF0F03EB8703490018680028F0D12069834204D31E60B261F660D9
:20072000B56011E003B0BDE8F04F00F099BF0BE0216990688A4228BF8842F3D3C660956009
:20074000B060F2600020B06103B0BDE8F08F2DE9F041704F05463868884608B9FFF723FD99
:20076000B96801EB08002F30491E20EA010188457BD205F5D876B06828B1326889188A4238
:2007800073D2884271D300F06FFF01001CBF0C6811F1010F69D0306820183060726882420F
:2007A00038BF02467260A86960BB286908B1814200D22961316174610020F06105F128029B
:2007C000386868624FF0FF3028620020D260926002F1080353611361801C10322028F5D35F
:2007E0004D48854208BFA4F1280228D055F8040CC00805EBC002A2F108000A19121A283AFC
:2008000001461CE005F5E070024600E092687AB3136857683B449942F8D1137B1F0727D4F0
:20082000AB691768BB4223D3D2F804C06744BB421ED2A444C2F804C0E868A969221828469C
:20084000FFF7CAFC1FE08068C0B103689342FAD1027B130712D4026801604368E4184460E6
:2008600043462846BDE8F041CFE40020BDE8F0812A69914238BF29610A19E5E70023224661
:200880002846FFF763FEE8688045EED2A0EB0800A969E86001EB0802AA6140F001005060EF
:2008A00048F00300486001F10800BDE8F08138B4184B1A6882B94FF480525A604FF4803473
:2008C0004FF0FF329C60DA601A610422124C134D5A61C4F8BC211D6011F1400F17D282691D
:2008E000AAB1C368283199420BD200F5E0710C68A24203D34D682C44A24202D389680029F5
:20090000F5D1C16999423CBF4FF0FF31C16132BC00207047E00A0020E80600206859883C1E
:200920002DE9F84F00258946090AC9F1000B08BF002323D0B1F5803F28BF1F231ED2A1F59D
:200940008072120C02F008029140A1F580531B0C03F004039940A1F58044240CC2F10E020A
:2009600004F00204D21A121BA14002EBD132D11D29FA01F303F0010303EB4203074607F51B
:20098000987858F8230030B31F2B0FBF4C465C08C4F1190409FA04F4AC46594600E0640041
:2009A0004268D208D200A2EB09028A4203D21100054600F06881426910304FEAD47B50F8B8
:2009C0002B00002A1CBF824294460028E7D18B466046B0BBBDBB012000FA03F35B00584209
:2009E00003437868034000F04D81584203405B1E180B00F01000C340590901F00801CB40ED
:200A00009A0802F00402D3405C0804F002040818E3401018C3F3400620183044F3401B1852
:200A200058F823000DE008464168C908C900A1EB090159453CBF8B46054601690029F2D124
:200A400040690028F0D1002D00F01C81B868A0EB0900834580F0168138698542C0F010811E
:200A60006868C008C00009EB0B01884218BF00F0F7FD05EB0906B54280F00281EC68D5F88F
:200A800018A0AC420CD0A8683969884222D3C168A94204BFA168A9421CD1C460A0601BE08C
:200AA00005F11402146834B905F1100214689CB101E01A46146804F114031968002902BFBC
:200AC00004F1100318680028F3D139698A4228BF106001D200F0C4FDBAF1000F36D0E96947
:200AE00008EB81000268954209D10460200014D1E8697968012282409143796026E0386993
:200B0000824508D3DAF81000A84214BFCAF81440CAF8104001E000F0A3FDBCB13869844227
:200B200012D3C4F818A0286930B13969884226BF2061846100F094FD686938B1396988428C
:200B400002D36061846101E000F08AFDBBF1100F0CD2D94449F003006860291D281D50F825
:200B6000090040F0010041F8090088E049F0030068604BF0010070604FEADB0046F80BB074
:200B80001F281DD807EBC00101F12804396821FA00F2D207A34605D4012202FA00F00843A5
:200BA000386006E0A068396988422CBF834600F057FDA660CBF80C60C6F808B0F4605EE00E
:200BC0005FEA1B2008BF002123D0B0F5803F28BF1F211ED2A0F58072120C02F008029040CA
:200BE000A0F58051090C01F004018840A0F580431B0CC2F10E0203F00203521AD21A984052
:200C000002EBD032D01D2BFA00F101F0010101EB4201F16100227261326108EB81007A6890
:200C200022FA01F3DB0707D4012303FA01F1114379600660B0611DE002681F291DBF490854
:200C4000C1F119010BFA01F1594600E002465068C008C000584518D002F11003CC0F03EB76
:200C60008403490018680028F0D13869834204D31E60B261F660B66001E000F0F1FC13E14F
:200C800000F0EEFC0DE18B46A3E6396990688A4228BF8842F1D3C6609660B060F2600020B9
:200CA000B061ECE72DE9F84F06468846716848420140491E080B00F01000C1404A0902F075
:200CC0000802D1408B0803F00403D9404D0805F002051018E9401818C1F34004281806F54E
:200CE000987A2044E14009185AF821104868C008C0000D46A0EB080909E001464868C008EA
:200D0000C000A0EB080048453CBF81460D4608690028F2D149690029F0D130698542C0F0D6
:200D2000BE806868C00808EB090BC000584518BF00F096FC05EB08008542009080F0AF8032
:200D4000EF68AC69AF420CD0A8683169884222D3C168A94204BFB968A9421CD1C760B860E2
:200D60001BE005F11402176837B905F1100217689FB101E01A46176807F1140319680029AD
:200D800002BF07F1100318680028F3D131698A4228BF106001D200F063FC002C31D0E969BD
:200DA0000AEB81000268954208D107608FB9E8697168012282409143716022E030698442DF
:200DC00005D32069A84214BF6761276101E000F047FCB7B13069874211D3BC61286930B154
:200DE0003169884226BF3861876100F039FC686938B13169884202D37861876101E000F07F
:200E00002FFCB9F1100F0BD24BF003006860291D281D50F80B0040F0010041F80B003DE08B
:200E200048F00301696049F00100291D41F80800009840F80990D6F808804FEAD80BBBF165
:200E4000200F28BF00F00CFCB8F1000F22D006EBCB00776900F12804A246B8F1100F38BF7A
:200E600000F0FEFB306820FA0BF1C90705D4012101FA0BF10843306006E0A06831698842EC
:200E80002CBF824600F0ECFBA760CAF80C70C7F808A0FC60C6F808900098706104E000F02D
:200EA000DFFB0020BDE8F28F05F10800BDE8F28F2DE9FE4F0546AFF30080F52DDFF89C6722
:200EC00080F004810B2D31BF10250B35ED08ED003068EC08E04010F0030F46D0C04300F0D7
:200EE0000100041906F1280000EBC408E700D8F808506868C008C000B84218BF00F0B0FB2B
:200F0000D5F80890454508BF00F0AAFB4D4508BF00F0A6FB6868C008C000B84218BF00F083
:200F20009FFBC84507D13168012000FA04F421EA040434600DE03069814508D3D9F80C00DB
:200F4000A84204D1C8F80890C9F80C8001E000F087FB47F003006860291D281D05F108044B
:200F6000C05940F00100C851F8E0B168A94280F0BE80002800F0A1804FF0010808FA04F10C
:200F8000490000FA04F4484201430C4060420440641E200B00F01000C440610901F0080101
:200FA000CC40A20802F00402D440630803F002030818DC401018C4F3400718183818FC40EE
:200FC000241806F1280000EBC40AE700DAF80890D9F80400C008C000B84218BF00F040FB53
:200FE000D9F808B0D14508BF00F03AFBD94508BF00F036FBD9F80400C008C000B84218BF32
:2010000000F02EFBDA4506D1316808FA04F421EA040434600DE03069834508D3DBF80C007F
:20102000484504D1CAF808B0CBF80CA001E000F017FB45F00300C9F804007F1B09F10401EC
:2010400047F00100485109EB05000190C751B4684FEAD40ABAF1200F28BF00F001FB34B356
:20106000CDF800A006F12800756900EBCA0AD346102C38BF00F0F4FA3168009821FA00F2E7
:20108000D30704D408FA00F00843306007E0DAF80800316988422CBF834600F0E1FACAF86B
:2010A0000850CBF80C50C5F808B0C5F80CA0B76009F108040198706150E07068C0B329466A
:2010C0003046FFF7EFFD040011D047E015F1400F28BF4FF0FF350AD20B35ED087068ED0027
:2010E00028B129463046FFF71BFC040036D1B068A8421DD3411B726910290AD350197061A1
:20110000B16041F001034360415045F0030555600BE00021B1607161131D40F0030151605F
:20112000111D095841F00101195002F1080415E0F06885420DD2401BB169F0604A19B26157
:2011400040F00100506045F003054D6001F1080404E029463046FFF7FAFA0446AFF30080A7
:201160002046FFF7F1BA002800D170472DE9FC47A0F10805AFF30080DFF8E0643269954212
:20118000C0F05982686800F00301012900F05382C1084FEAC109C10705EB090839D42C68DB
:2011A00010F0030F00F04982604205449542A144C0F041827069854200F0C780E408202C39
:2011C0005ED2D5F80CA0AF68554508BF00F048FABD4208BF00F044FA6868C008C000B0EBD5
:2011E000C40F18BF00F03CFA06F1280000EBC400874205D031698F423FD3F968A9423CD1DD
:20120000BA452CD13068012101FA04F420EA04043460454580F00F82D8F80440E00740F1C8
:201220000A82A00700F16881B069804540F0A080F068B5618144C6F80C9049F001006860E4
:201240007069854202D100207061B060F069484580F0F38100213046FFF729FBEDE182450A
:2012600006D03069824508D3DAF80800A84204D1C7F80CA0CAF80870CBE700F0F1F9C8E7E4
:20128000EC68AF69AC420BD0A868904223D3C168A94204BFA168A9421DD1C460A0601CE068
:2012A00005F114031C6834B905F110031C68A4B101E063461C6804F1140CDCF8001000299E
:2012C00002BF04F1100CDCF800000028F1D1934228BF196001D200F0C3F9002F99D0E969E0
:2012E00006F5987000EB81000268954209D10460200011D1E869716801228240914371604A
:2013000087E73069874205D33869A84214BF7C613C6101E000F0A4F9002C3FF47AAF3169BD
:201320008C42AAD3A761286928B1884226BF2061846100F095F9686900283FF46AAF31697E
:2013400088429AD36061846163E798F8040000F0030003287FF45DAFC6F8089049F00101A4
:20136000D8F8040040084000C8F8040069600AE0706980450AD1B06875618144C6F8089018
:2013800049F00100686045F8099056E1E408E400A144E408202C3AD2D8F80CA0D8F8087081
:2013A000D04508BF00F05CF9B84508BF00F058F9D8F80400C008C000B0EBC40F18BF00F076
:2013C0004FF906F1280000EBC400874207D031698F42C0F08480F968414540F08080BA4522
:2013E00007D13068012101FA04F420EA0404346077E0824506D031698A4570D3DAF8080048
:2014000040456CD1C7F80CA0CAF8087069E0D8F80C40D8F8187044450DD0D8F808003169D0
:20142000884222D3C168414504BFA16841451CD1C460A0601BE008F11402146834B908F16F
:20144000100214689CB101E01A46146804F114031968002902BF04F1100318680028F3D109
:2014600031698A4228BF106001D200F0F9F8002F37D0D8F81C1006F5987000EB81000268F0
:2014800090450AD10460200012D1D8F81C007168012282409143716023E03069874205D3A9
:2014A0003869404514BF7C613C6101E000F0D8F8BCB131698C4212D3A761D8F8100028B19D
:2014C000884226BF2061846100F0CAF8D8F8140038B13169884202D36061846101E000F0C8
:2014E000BFF849F00100686045F80990706985420BD1C6F80890A0E064086400C8F8044037
:2015000049F00100686045F809904FEAD907202F22D206F1280000EBC704A046B9F1100F13
:2015200038BF00F09DF8306820FA07F1C90705D4012101FA07F70743376006E0A068316958
:2015400088422CBF804600F08BF8A560C8F80C50C5F80880EC6070E05FEA192008BF002131
:2015600023D0B0F5803F28BF1F211ED2A0F58072120C02F008029040A0F58051090C01F020
:2015800004018840A0F580431B0CC2F10E0203F00203521AD21A984002EBD032D01D29FA15
:2015A00000F101F0010101EB420106F5987202EB810000226A612A61E961726822FA01F3F9
:2015C000DB0707D4012303FA01F1114371600560A8611DE002681F291DBF4908C1F1190100
:2015E00009FA01F1494600E002465068C008C000484526D002F11003CC0F03EB84034900DD
:2016000018680028F0D13069834204D31D60AA61ED60AD6001E000F023F8306A401E3062D4
:201620000BD1D6F8C80100E080680028FCD14FF0FF30306201E000F013F8AFF30080BDE8D7
:20164000F387316990688A4228BF8842E3D3C5609560A860EA600020A861DEE7E8060020E3
:20166000012000F017B800000749086808B1002070470648C008C00008600549C908C90014
:20168000091A0160704700BF040B0020170F0020101700202021090326311820ABBEF9E76F
:2016A0000EB418B504000898012817D1A06B30F48030A063E168DFF800070140E160E06813
:2016C00030F44010E0600F98012803D1E06850F48010E060200000F024FE09E0E06850F0B3
:2016E0004000E060200000F01CFE5FF48030A0630698012807D1A06850F00600A060A06845
:2017000050F02000A060002012BC5DF810FB0100886850F001008860002070470100886839
:201720004008400088600020704738B505000C00E86830F0C040E860E4B2012C04D1E868C4
:2017400050F00050E86006E0E4B2002C03D1E86850F08040E860322000F006FE002032BD48
:201760000EB430B5040000250D98002804D1A06B50F40010A06303E0A06B50F40020A06340
:20178000002014F56061086014F50060006814F500610860089801280CD10598002804D114
:2017A0000021200000F0D5F808E00121200000F0D0F803E00321200000F0CBF8102120001E
:2017C00000F0A5F8200000F0B4F8002014F500610861002014F5006148615FF0FF3014F513
:2017E00000618861002014F50061C86100200399884222D214EB401111F510610968002911
:2018000007D55FF0904114EB401212F51062116005E0002114EB401212F51062116014EB51
:20182000401111F5106100220A6114EB401111F51061FF228A60401CD9E7002103988142E6
:2018400022D214EB411010F530600068002807D55FF0904014EB411212F53062106005E0E4
:20186000002014EB411212F53062106014EB411010F530600022026114EB411010F530609E
:20188000FF228260491CD9E714F50060006930F4807014F5006210610698012812D1DFF8DD
:2018A000B80A14F50062106314F50060006B40F4803050F0030014F50062106314F5006046
:2018C000006B01000020A0617FF0804060610698002803D1A06950F01000A061A269DFF8B5
:2018E0007C0A0243A2610998002803D0A06950F00800A0610D98012805D1A06940F080408F
:2019000050F00400A061002030BC5DF810FB02000023880150F0200010615B1CDFF8400AFF
:20192000834201D3032003E010698006F5D4002070470100002210200861521CDFF8200A3E
:20194000824201D3032003E00869C006F5D400207047020012F500600068C9B2084312F574
:2019600000631860002070470100002011F50062926812F0060F02D10022100019E011F517
:201980000062926812F00602022A06D011F50062926812F00602062A02D10322100008E053
:2019A00011F50062926812F00602042A01D102221000C0B2704730B40200487801282DD191
:2019C00012F50060C369012408788440A4B2234312F50060C361087812EB401010F5106082
:2019E0000068000444D4087812EB401010F510600B7812EB431313F510631B688C686405F0
:201A0000640DCD7854EA85440D7854EA855444F0805454F400442343036029E012F50060A0
:201A2000C36901240878844053EA044312F50060C361087812EB401010F530600068000434
:201A400016D4087812EB401010F530600B7812EB431313F530631B688C686405640DCD7833
:201A600054EA854444F0805454F4004423430360002030BC7047F8B504000D001600002744
:201A80006878012840F0EE80686900282AD1287814EB401010F51060297814EB411111F54F
:201AA000106109696FF3DC410161287814EB401010F51060297814EB411111F51061096923
:201AC00051F400210161287814EB401010F51060297814EB411111F510610969C90CC9045D
:201AE000016162E0287814EB401010F51060297814EB411111F510610969C90CC9040161FF
:201B0000287814EB401010F51060297814EB411111F5106109696FF3DC410161287814EB06
:201B2000401111F51061287814EB401010F5106002696B69A868C3185B1EA868B3FBF0F038
:201B4000DFF8203813EAC0431A430A61287814EB401010F51060297814EB411111F51061C1
:201B600009696A695203520B11430161E87801281BD1287814EB401010F51060297814EB3F
:201B8000411111F51061096931F0C0410161287814EB401010F51060297814EB411111F52A
:201BA0001061096951F000510161F6B2012E07D1287814EB401010F51060296941610FE018
:201BC000E87801280CD06869002809D014F50060416B012228788240114314F500604163D3
:201BE000E878012821D114F500608068C0050ED4287814EB401010F51060297814EB41111C
:201C000011F51061096851F0005101600DE0287814EB401010F51060297814EB411111F5A0
:201C20001061096851F080510160287814EB401010F51060297814EB411111F51061096811
:201C400051F004410160E878012840F0B2803000C0B200906B699BB22A78E968200000F05C
:201C6000A2F9A6E0287814EB401010F53060297814EB411111F530610969C90CC9040161C0
:201C8000287814EB401010F53060297814EB411111F5306109696FF3DC41016168690028EB
:201CA0001ED1287814EB401010F53060297814EB411111F530610969AA685203520B11439E
:201CC0000161287814EB401010F53060297814EB411111F53061096951F4002101612BE050
:201CE0006969A8684118491EA868B1FBF0F00700287814EB401010F53060297814EB411129
:201D000011F530610969BFB2DFF8582612EAC74211430161287814EB401010F53060297814
:201D200014EB411111F530610969AA68BFB27A435203520B11430161F6B2012E06D1287853
:201D400014EB401010F53060E9684161E878012821D114F500608068C0050ED4287814EB9A
:201D6000401010F53060297814EB411111F53061096851F0005101600DE0287814EB4010B5
:201D800010F53060297814EB411111F53061096851F080510160287814EB401010F53060BD
:201DA000297814EB411111F53061096851F0044101600020F2BD0000BFFFBDFF30B4030012
:201DC0004878012840F09580486900282AD1087813EB401010F510600C7813EB441414F5DB
:201DE000106424696FF3DC440461087813EB401010F510600C7813EB441414F510642469D4
:201E000054F400240461087813EB401010F510600C7813EB441414F510642469E40CE404F2
:201E200004613FE0087813EB401010F510600C7813EB441414F510642469E40CE4040461BA
:201E4000087813EB401010F510600C7813EB441414F5106424696FF3DC44046188684C69CF
:201E6000A04201D288684861087813EB401010F510600C7813EB441414F51064246954F4A5
:201E800000240461087813EB401010F510600C7813EB441414F5106424694D696D036D0BF4
:201EA0002C430461087813EB401010F510600C7813EB441414F51064246854F00444046038
:201EC000D2B2012A07D1087813EB401010F510600C69446164E04869002861D013F5006068
:201EE000446B0125087885402C4313F50060446356E0087813EB401010F530600C7813EB2F
:201F0000441414F530642469E40CE4040461087813EB401010F530600C7813EB441414F5BC
:201F2000306424696FF3DC4404614869002801D088684861087813EB401010F530600C786F
:201F400013EB441414F53064246954F400240461087813EB401010F530600C7813EB4414F3
:201F600014F5306424698D686D036D0B2C430461D2B2012A06D1087813EB401010F530609D
:201F8000CC684461087813EB401010F530600C7813EB441414F53064246854F00444046012
:201FA000002030BC7047F0B405000C00049900260027C9B2002914D19BB2D81C8008060067
:201FC00000200700B7420CD22068D2B24FF4805C0CFB025C1CF5805CCCF800007F1C241DE6
:201FE000F0E70020F0BC704730B40300002092B2D51CAD080024AC4206D213F5805000686C
:020000040800F2
:202000000860641C091DF6E7080030BC704702004878012824D1087812EB401010F5106008
:20202000006800280DD4087812EB401010F510600B7812EB431313F510631B6833F0804333
:202040000360087812EB401010F510600B7812EB431313F510631B6853F40013036023E047
:20206000087812EB401010F53060006800280DD4087812EB401010F530600B7812EB431355
:2020800013F530631B6833F080430360087812EB401010F530600B7812EB431313F5306306
:2020A0001B6853F4001303600020704702004878012822D1087812EB401010F510600B7866
:2020C00012EB431313F510631B6833F400130360C878032802D0C878022830D1087812EBED
:2020E000401010F510600B7812EB431313F510631B6853F08053036021E0087812EB401000
:2021000010F530600B7812EB431313F530631B6833F400130360C878032802D0C8780228F2
:202120000DD1087812EB401010F530600B7812EB431313F530631B6853F0805303600020D2
:20214000704738B5040000250F2D0DD214EB451010F51060FF21816014EB451010F53060E4
:20216000FF2181606D1CEFE75FF0FF3014F500618861002014F500610861002014F50061B1
:202180004861002014F50061C8612000FFF7D1FB10212000FFF7BBFB002032BD020012F5EC
:2021A0000060006830F4FE6012F50063186012F500600068C9B20B0113F4FE63184312F5D3
:2021C000006318600020704710B5040014F50060406830F0020014F500614860032000F02C
:2021E000C3F8002010BD10B5040014F50060406850F0020014F500614860032000F0B4F84A
:20220000002010BD020000235069916908407047020012F50060806912F50061C9690840C6
:20222000000C7047020012F50060806912F50061C969084080B270470300C9B213EB4110F1
:2022400010F53060806813F5006252691040704710B4020012F50060036912F50060446B26
:202260002000C840C00110F080000343C9B212EB411010F510608068184010BC7047406905
:2022800010F001007047010011F510600068C00AC00211F51062106011F50060806810F0E5
:2022A0000600042807D111F51060006850F0030011F51062106011F50060406850F48070C9
:2022C00011F5006250600020704710B40300002013F53064206113F53060006950F40020A6
:2022E00013F53064206113F53060006950F0180013F53064206113F53060006950F0C0400A
:2023000013F530642061C9B2012907D113F5306042615FF0802013F530642060002010BCF1
:20232000704701000022521C0D48824201D3032011E008690028F6D50023086950F001001B
:2023400008615B1C0648834201D3032003E00869C007F6D4002070470001800000383C8062
:20236000410D03000000F81F31B500F017F80400009D15F1010F00D06D1C00F00FF80028E1
:2023800005D000F00BF8001BA84205D2F9E700980A21484300F01FF831BD000001480068C5
:2023A000704700BF000B002080B51348006850F40070114908601048006850F480600E49D3
:2023C0000860032000F092F80F2000F0D9F800F019F8002002BD01B4009908480068084AD0
:2023E000B0FBF2F0414300910098411E00910028FAD101B070470000003C024000000020BA
:2024000040420F007047000010F00703DFF850110A684FF6FF010A40DFF8481151EA0321A2
:202420000A43DFF83C110A607047DFF834010068C0F30220704740B200280AD4012210F0EF
:202440001F018A40DFF8201140B203005B0941F82320704710B440B2002804D40A01434BAF
:2024600040B21A5407E00A01414B40B210F00F04234403F8042C10BC704770B4030013F03A
:202480000704D4F10700052801D3042001E0D4F10700251D072D01D2002500E0E51E01261B
:2024A00016FA00F0401E0140A940012010FA05F56D1E2A401143080070BC704710B5040072
:2024C000601EB0F1807F01D301200EE0601E294908600F215FF0FF30FFF7BCFF00202649B5
:2024E0000860072025490860002010BD10B504002000FFF789FF10BD2DE9F04104000D00FE
:2025000016000027FFF791FF8046320029004046FFF7B3FF0100200040B2FFF79BFFBDE861
:20252000F08110B50400200040B2FFF784FF10BD10B504002000FFF7C1FF10BD042806D19A
:202540000E49096851F004010C4A116005E00B49096831F00401094A11607047000000005B
:202560000CED00E00000FA0500E100E000E400E018ED00E014E000E018E000E010E000E09D
:2025800010B50400074800684FF47A71B0FBF1F0FFF7CEFF002221005FF0FF30FFF7ACFFDC
:2025A000002010BD0000002038B58AB004000025002C01D1012090E0032084F8B9032000B4
:2025C00000F08BFD2068FFF7A9F8211D83B06846342200F0EDFF0EBC2068FFF761F8002151
:2025E0002068FFF7A2F800200F282CD201211C2202FB00F2224482F839101C2101FB00F1CC
:20260000214481F838001C2101FB00F12144C88700211C2202FB00F2224482F83B1000212C
:202620001C2202FB00F22244116400211C2202FB00F22244516400211C2202FB00F2224475
:20264000D164401CD0E700250F2D35D200201C2101FB05F1214481F8F9011C2000FB05F077
:20266000204480F8F8511C2000FB05F02044C58700201C2101FB05F1214481F8FB01002010
:202680001C2101FB05F12144C1F8000200201C2101FB05F12144C1F8040200201C2101FB1F
:2026A00005F12144C1F80C020020216801EB8501C1F804016D1CC7E7211D83B06846342273
:2026C00000F076FF0EBC2068FFF74AF8012084F8B9032068FFF787FD00200BB030BD10B523
:2026E000040094F8B803012801D102200CE0012084F8B8032068FFF767FD2068FFF707F8CF
:20270000002084F8B803002010BD10B5040094F8B803012801D102200FE0012084F8B80301
:202720002068FEF7FBFF2068FFF70BFD2068FFF75AFD002084F8B803002010BD2DE9FE4F20
:20274000060037685FF0000800255FF000090024002001905FF0000ADFF8E0B53068FFF7D8
:202760008EFD002840F0E8823068FFF74BFD002800F0E2823068FFF745FD800705D53068F1
:20278000406910F00200316848613068FFF73AFD000372D5002004003068FFF739FD050050
:2027A000002D6AD0E80765D52100C9B23068FFF743FD81465FEAC97047D517EB441010F55F
:2027C0003060012181603069012826D11C2000FB04F03044D0F8000217EB441111F5306156
:2027E00009694903490B401A1C2101FB04F13144C1F810021C2000FB04F03044D0F8040292
:202800001C2101FB04F13144D1F8001208441C2101FB04F13144C1F804022100C9B23000C0
:2028200000F087FD306901280FD1002C0DD11C2000FB04F03044D0F80C02002805D116F5FA
:202840006F7201213068FFF740FD5FEA097008D5300000F065FD17EB441010F53060082175
:2028600081605FEAC96005D517EB441010F5306010218160641C6D0892E73068FFF7C2FC74
:2028800040037BD53068FFF7CDFC050000200400002D73D0E8076ED52100C9B23068FFF759
:2028A000D7FC81465FEAC9703AD50120A040019017F50060416B0198814317F500604163D6
:2028C00017EB441010F5106001218160306901280FD11C2000FB04F03044406C1C2101FB04
:2028E00004F13144096C08441C2101FB04F1314448642100C9B2300000F02CFD30690128B7
:202900000ED1002C0CD11C2000FB04F03044C06C002805D116F56F7201213068FFF7D5FC99
:202920005FEA097005D517EB441010F51060082181605FEAC96005D517EB441010F510600F
:20294000102181605FEA496005D517EB441010F51060402181605FEA897005D517EB44101A
:2029600010F51060022181605FEA096003D52100300000F035FB641C6D0889E73068FFF7F0
:2029800041FC002810D517F5006040684008400017F500614860300000F013FD30684069CB
:2029A00010F00040316848613068FFF72BFC00050DD517F500608068C00702D5300000F0E7
:2029C000F9FC3068406910F40060316848613068FFF718FCC00467D517F50060406840081D
:2029E000400017F50061486010213068FEF78FFF00208046706880450ED217EB481010F574
:202A00001060FF21816017EB481010F53060FF21816018F10108EDE75FF0FF3017F5006184
:202A2000886117F50060C06950F0011017F50061C861306B002812D017F50060D0F88400D4
:202A400050F00B0017F50061C1F8840017F50060406C50F00B0017F5006148640FE017F50A
:202A60000060406950F00B0017F50061486117F50060006950F00B0017F50061086117F5EA
:202A80000060006830F4FE6017F50061086016F56F723169C9B23068FFF717FC3068406934
:202AA00010F48050316848613068FFF7ABFB800440F1A5803068FFF7E6FB3068C06830F49F
:202AC00070503168C8603068FEF74EFF00280BD10020F0604FF4007070613068C06850F49F
:202AE00010503168C86081E00320F0604020706100F047FE83469248834509D39148834593
:202B000006D23068C06850F470503168C8606DE08C48834509D38C48834506D23068C0685F
:202B200050F460503168C86060E08748834509D38648834506D23068C06850F45050316882
:202B4000C86053E08148834509D38148834506D23068C06850F440503168C86046E07C4805
:202B6000834509D37B48834506D23068C06850F430503168C86039E07648834509D37648D0
:202B8000834506D23068C06850F420503168C8602CE07148834509D37048834506D2306807
:202BA000C06850F410503168C8601FE06B48834509D36B48834506D23068C06850F400508B
:202BC0003168C86012E06648834509D36548834506D23068C06850F4E0503168C86005E0C9
:202BE0003068C06850F4C0503168C860300000F0C8FB3068406910F40050316848613068AE
:202C0000FFF700FBC00647D53068806930F0100031688861386A82461AF00F011C2041436A
:202C200006EB010010F5FC700090CAF3434002281BD147F6F0701AEA000F27D0CAF30A12CB
:202C400092B20098C1683800FFF7CEF90098C068CAF30A1108440099C86000988169CAF396
:202C60000A1041180098816110E0CAF3434006280CD1082216F56F713800FFF7B5F90098A3
:202C80008169CAF30A104118009881613068806950F01000316888613068FFF7B3FA00070B
:202CA00008D5300000F066FB3068406910F00800316848613068FFF7A5FAC0020AD521003C
:202CC000C9B2300000F08EFB3068406910F48010316848613068FFF795FA80020AD521001A
:202CE000C9B2300000F074FB3068406910F40010316848613068FFF785FA400008D53000D9
:202D000000F07AFB3068406910F08040316848613068FFF777FA40070ED5306840688246DA
:202D20005FEA4A7002D5300000F06DFB306840685AEA000031684860BDE8F78F0095BA0AE8
:202D4000C0ACD800C0E1E4000024F40080730601A0491A01002D310140A44C0100366E015F
:202D600020ABA6010048E80138B504000D0094F8B803012801D102200BE0012084F8B8030B
:202D80002900C9B22068FFF709FA002084F8B803002032BD2DE9F84304000D0016001F0011
:202DA0005FF00008EDB2280609D5EDB215F07F011C20414304EB010010F1380908E0EDB274
:202DC00015F07F011C20414304EB010010F5FC7915F07F0089F800002800C0B2C00989F85B
:202DE0000100B6B2C9F8086089F8037099F80100002803D099F80000A9F80600FFB2022FA6
:202E000002D1002089F8040094F8B803012801D102200BE0012084F8B80349462068FEF787
:202E2000CAFD002084F8B8034046C0B2BDE8F2832DE9F04104000D0016001F00EDB215F031
:202E40007F011C20414304EB010010F5FC78C8F80C60C8F814700020C8F81800002088F8C1
:202E6000010015F07F0088F800002069012801D1C8F8106015F07F0F06D12269D2B2414699
:202E80002068FEF79BFF05E02269D2B241462068FEF7F1FD0020BDE8F0812DE9F0410400B4
:202EA0000D0016001F00EDB215F07F011C20414304EB010010F13808C8F80C60C8F814704B
:202EC0000020C8F81800012088F8010015F07F0088F800002069012801D1C8F8106015F09B
:202EE0007F0F06D12269D2B241462068FEF766FF05E02269D2B241462068FEF7BCFD002024
:202F0000BDE8F08170B504000D00EDB2280609D5EDB215F07F011C20414304EB010010F1E5
:202F2000380606E0EDB21C2000FB05F0204410F5FC760120B07015F07F0030702800C0B2C8
:202F4000C009707094F8B803012801D1022014E0012084F8B80331002068FFF758F815F014
:202F60007F0F06D114F56F722169C9B22068FFF7ACF9002084F8B803002070BD70B504000D
:202F80000D00EDB2280609D5EDB215F07F011C20414304EB010010F1380606E0EDB21C20A5
:202FA00000FB05F0204410F5FC760020B07015F07F0030702800C0B2C009707094F8B80358
:202FC000012801D102200AE0012084F8B80331002068FFF76BF8002084F8B803002070BDDC
:202FE0002DE9FC4705000E002F6800205FF000081C2101FB06F1294411F13809D9F8141082
:20300000D9F818400C1BD9F80810A14202D2D9F80800040014F1030A5FEA9A0A17EB46108C
:2030200010F51060806980B2824531D2D9F81800D9F8141088422BD2D9F81400002827D08D
:20304000D9F81410D9F81800091A0C00D9F80800A04202D2D9F808000400E01C80088246AB
:203060002869C0B20090200003009BB23200D2B2D9F80C103800FEF796FFD9F80C002044A7
:20308000C9F80C00D9F818002018C9F81800C5E7002C0AD10120B040804617F50060406BC8
:2030A00030EA080017F5006148630020BDE8F68710B440B2002805D40A01DFF8CC3340B20A
:2030C0001A5408E00A01DFF8C43340B210F00F04234403F8042C10BC704710B586B00400A8
:2030E0002068B0F1A04F5CD100200590DFF8A003006850F00100DFF898130860DFF890035F
:20310000006810F00100059005984FF4C05000900220019000200290032003900A20049058
:203120006946DFF8700300F083FB4FF40070009000200190002002906946DFF8580300F0B1
:2031400077FB4FF48060009012200190012002900A2004906946DFF83C0300F069FBDFF826
:203160003803006850F08000DFF82C13086000200590DFF82803006850F48040DFF81C1345
:203180000860DFF81803006810F4804005900598002205214320FFF7AFF94320FFF7C1F91B
:2031A000BCE02068BE49884240F0B88000200590B748006850F00100B5490860B44800688B
:2031C00010F001000590059800200590B048006850F00200AE490860AD48006810F00200A7
:2031E0000590059800200590A948006850F00400A7490860A648006810F004000590059867
:2032000000200590A248006850F08000A04908609F48006810F080000590059800200590E0
:203220009B48006850F48070994908609848006810F48070059005982020009002200190D4
:2032400000200290032003900A2004906946914800F0EEFA082000900220019000200290CB
:20326000032003900A20049069468A4800F0E0FA43F62340009002200190002002900A20D4
:2032800004906946874800F0D3FA0120009002200190002002900A2004906946824800F022
:2032A000C7FA1020009002200190002002900A20049069467D4800F0BBFA4FF4006000901E
:2032C00002200190002002900A2004906946784800F0AEFA002005906D48006850F0005062
:2032E0006B4908606A48006810F0005005900598002005906648006850F080406449086036
:203300006348006810F0804005900598002205214D20FFF7F1F84D20FFF703F906B010BD32
:2033200010B5040014F56F71D4F8EC0300F015FC10BD38B504000D00EDB21C2000FB05F089
:203340002044D0F804222900C9B2D4F8EC0300F039FC31BD38B504000D00EDB21C2000FBD5
:2033600005F02044426C2900C9B2D4F8EC0300F070FC31BD10B50400D4F8EC0300F012FD1A
:2033800010BD38B504000120E168002902D0022902D003E0002502E0012500E001252900CE
:2033A000C9B2D4F8EC0300F0E8FCD4F8EC0300F0C1FC31BD10B50400D4F8EC0300F0E1FC5C
:2033C00010BD10B50400D4F8EC0300F0E4FC10BD38B504000D002900C9B2D4F8EC0300F0B2
:2033E000F6FC31BD38B504000D002900C9B2D4F8EC0300F0E9FC31BD10B50400D4F8EC0349
:2034000000F0E8FC10BD10B50400D4F8EC0300F0E4FC10BD10B5040000215FF0FF30FFF78C
:2034200047FE5FF0A0402349086003202149486000202049086340201E49486100201D4925
:20344000086100201B49086202201A49886100201849C86102201749C86000201549C862AB
:203460001448C0F8EC431348C4F820021148FFF79BF8A0210F4800F0EEFCA02200210D48C4
:2034800000F0B9FC002010BD00E400E018ED00E03038024000000240343802404438024099
:2034A000000004400004024000080240001C024000200240D400002010B50400D4F82002CD
:2034C000FFF70DF9002010BD10B50400D4F82002FFF71BF9002010BDF8B504000D00160081
:2034E0001F003300DBB23A0092B22900C9B2D4F82002FFF74FFC0020F2BD38B504000D00CF
:203500002900C9B2D4F82002FFF7FCFC002032BD38B504000D002900C9B2D4F82002FFF796
:203520002DFD002032BD0200D2F82032C9B2080609D5C9B211F07F011C20414303EB010022
:2035400090F83A0008E0C9B211F07F011C20414303EB010090F8FA01704738B504000D00DE
:203560002900C9B2D4F82002FFF7FEFB002032BDF8B504000D0016001F00BFB23B003200EA
:203580002900C9B2D4F82002FFF787FC0020F2BDF8B504000D0016001F00BFB23B00320080
:2035A0002900C9B2D4F82002FFF742FC0020F2BD103A07D330B4B1E83810103AA0E8381073
:2035C000F9D230BC530724BFB1E80810A0E8081044BF51F8043B40F8043BD20724BF31F8BF
:2035E000022B20F8022B44BF0B7803707047121F17D35B0009D151F8043B20F8023B1B0C55
:20360000121F20F8023BF6D20BE051F8043B00F8013B1B0A20F8023B1B0C121F00F8013BAF
:20362000F3D238BF121D521E24BF11F8013B00F8013BF8D87047000070B504000D00002CEA
:2036400001D101209CE05048006810F00F00A84209D24D4805704C48006810F00F00A84228
:2036600001D001208CE02078800719D52078400705D54648006850F4E0504449086020782F
:20368000000705D54148006850F460403F4908603E48016831F0F001A06801433B48016053
:2036A0002078C00736D56068012805D138480068800313D4012063E06068022802D0606897
:2036C000032805D132480068800107D4012057E02F480068800701D4012051E02B480168EA
:2036E000890889006068014328480160FEF756FE06002648006810F00C006168B0EB810FAE
:2037000008D0FEF74BFE801B41F289318842F0D3032035E01C48006810F00F00854209D2C9
:20372000194805701848006810F00F00A84201D0012025E02078400707D51448016831F456
:20374000E051E0680143114801602078000708D50E48006830F46040216950EAC1000B491B
:20376000086000F01BF80B49084A1268C2F30312895CC840084908600F20FEF701FF00200A
:2037800070BD054800687047003C024008380240003802409861000800000020F0B500242C
:2037A0000025002600271E48006810F00C00002804D0042804D0082804D02FE019482EE03F
:2037C00019482CE01948006810F03F0004001748006840020CD515480068C0F3881012491B
:2037E000A1FB00012200002300F03CFB05000BE00E480068C0F388100A49A1FB00012200B5
:20380000002300F02FFB050008480068C0F30140401C40000600B5FBF6F000E00148F0BDAC
:20382000083802400024F40040787D0104380240F8B40023002400250026102E80F00481C9
:203840000122B24013000A681A4014009C4240F0F9804A68022A02D04A68122A1ED132001A
:20386000D20800EB8202176A5FF00F0C16F00702D2B292001CFA02FC37EA0C07D1F810C00E
:2038800016F00702D2B292001CFA02FC5CEA07073D003200D20800EB8202156207685FF0AE
:2038A000030C3200D2B252001CFA02FC37EA0C0791F804C01CF0030C3200D2B252001CFA23
:2038C00002FC5CEA070707604A68012A08D04A68022A05D04A68112A02D04A68122A24D125
:2038E00085685FF0030C3200D2B252001CFA02FC35EA0C05D1F80CC03200D2B252001CFA7E
:2039000002FC5CEA0505856042685FF0010C1CFA06FC32EA0C02D1F804C0CCF3001C1CFAAE
:2039200006FC5CEA020217004760C5685FF0030C3200D2B252001CFA02FC35EA0C05D1F8DD
:2039400008C03200D2B252001CFA02FC5CEA0505C5604A68D20075D500220092404A126888
:2039600052F480423E4F3A603D4A126812F480420092009A3B4A3700BF0852F827705FF070
:203980000F0C16F00302D2B292001CFA02FC37EA0C07354A904201D1002523E0334A904209
:2039A00001D101251EE0324A904201D1022519E0304A904201D1032514E02F4A904201D17A
:2039C00004250FE02D4A904201D105250AE02C4A904201D1062505E02A4A904201D1072532
:2039E00000E00825EDB216F00302D2B2920095402F431C4A3500AD0842F82570224A1268AE
:203A0000A2434D68ED0300D522431F4D2A601F4D2D68A5434F68BF0300D525431B4A156073
:203A20001B4A1268A2434F68FF0200D52243184D2A60184D2D68A5434F68BF0200D525434A
:203A4000144A1560761CF8E6F1BC70470200106989B2084201D0012000E00020C0B27047A4
:203A60004438024008380140000002400004024000080240000C024000100240001402403F
:203A800000180240001C0240003C0140043C0140083C01400C3C014070B505000C00160016
:203AA000002D01D1022012E0D5F81402002802D00020C5F81402002C01D0C5F810420120F6
:203AC00085F8FC012E702800FFF7A4FC002070BD02000023002903D0C2F81412002000E0C2
:203AE0000220C0B2704710B504002000FFF7E4FC002010BD10B504006168C9B22000D4F8D6
:203B00001422526890472000FFF7DEFC002010BD01000020704770B504000D000226D4F8FF
:203B2000140200280AD02900C9B22000D4F8142212689047002801D1002006003000C0B294
:203B400070BD38B504000D002900C9B22000D4F8142252689047002032BD38B504000D00D6
:203B6000290014F5027000F073FD0120C4F8F401B4F80E02C4F8F80194F8080210F01F0049
:203B8000C0B2002803D002280DD006D311E014F50271200000F07EFA12E014F50271200055
:203BA00000F0B6FA0CE014F50271200000F0D6FA06E094F8081211F080012000FFF79DFC60
:203BC000002032BDF8B505000C001600E4B2002C2DD115F582700700D5F8F401032836D14B
:203BE000F868B968884210D2B968F868091AB960B868F968884201D2BA6800E0FA6892B215
:203C00003100280000F0A8FD21E0D5F814020069002808D095F8FC01032804D12800D5F8EA
:203C2000141209698847280000F0A3FD0FE0D5F81402806900280AD095F8FC01032806D11C
:203C40002100C9B22800D5F81422926990470020F2BDF8B505000C001600E4B2002C57D13E
:203C600015F114000700D5F8F401022845D1F868B968884210D2B968F868091AB960BA6815
:203C800092B23100280000F044FD0023002200212800FFF77DFC30E07868F968B0FBF1F27A
:203CA00001FB1200002817D17868F968884213D37868D5F8F81188420ED20022002128002A
:203CC00000F027FD0020C5F8F8010023002200212800FFF75DFC10E0D5F81402C0680028FA
:203CE00008D095F8FC01032804D12800D5F81412C9688847280000F049FD95F80002012831
:203D000016D12800FFF704FF002085F800020FE0D5F81402406900280AD095F8FC010328CA
:203D200006D12100C9B22800D5F81422526990470020F2BD10B504004023002200212000F5
:203D4000FFF7CAFB4020C4F810014023002280212000FFF7C1FB40202062012084F8FC0107
:203D6000D4F81802002806D06168C9B22000D4F8142252689047002010BD020011740020D4
:203D80007047010091F8FC0181F8FD01042081F8FC0100207047010091F8FD0181F8FC01FF
:203DA0000020704710B5040094F8FC01032809D1D4F81402C069002804D02000D4F81412BC
:203DC000C9698847002010BD02000020704702000020704701000020704710B50400012081
:203DE00084F8FC016168C9B22000D4F8142252689047002010BD70B40300002400201D6876
:203E00006D6AC9B2002905D192B255EA02401E68B0621DE01868806A15EB10450020040014
:203E2000E4B2C9B2481E844209DA1868E4B200EB8400D0F8040115EB1045641CF0E71868E4
:203E4000C9B200EB810092B255EA0246C0F80061002070BC7047020089B21068416200201C
:203E600070470000B3BBD9B1B2F5803F7DD2022A1ED98C46B1FBF2F102FB11C31B0443EA3D
:203E80001043B3FBF2FC02FB1C3380B240EA0343B3FBF2F002FB103240EA0C400023704726
:203EA000022A05D98446B0FBF2F002FB10C270474AB105D100F0010249085FEA30007047D6
:203EC00000220023704700F06FBC0B000200002100207047904271EB030CF6D3B3F5803F59
:203EE0002FD2F0B5B3FA83F7B1FA81F4A7F10F0E3D1B5340CEF1200602FA0EF2F34153408D
:203F0000B5F10F0746D80F3C2C444140C4F12006A040F1414140B1FBF3F603FB1611A2FBC6
:203F20000645001BA94102D2761E8018594180EA010221FA0EF362FA0EF200215A40304681
:203F4000F0BD30B4B1FBF3FC03FB1C11A2FB0C45001BA94103D2ACF1010C8018594130BC7A
:203F600002460B46604600217047B2F1807F65D3F0B5B2FA82F7B1FA81F4C7F10F063D1B41
:203F800022FA06F307F1110EF24120355A40B5F10F07B8D94140C4F12006A040F141414097
:203FA000B1FBF3FC03FB1C11A2FB0C45001BA94103D2BCF1010C801859410F2F12D30F3F16
:203FC000C90341EA5041B1FBF3F603FB1611A2FB0645D4EBC030A94102D2761E8018594184
:203FE00046EACC3C07B34140C7F12006B840F1414140B1FBF3F603FB1611A2FB0645001B08
:020000040800F2
:20400000A94102D2761E8018594180EA010221FA0EF3C7F1200462FA0EF20CFA07F05A40C4
:204020002CFA04F13043F0BD80EA010221FA0EF3002162FA0EF260465A40F0BD8C46B1FBD4
:20404000F2F102FB11C31B0243EA1063B3FBF2FC02FB1C331B024CEA002043EA1063B3FB46
:20406000F2FC02FB1C331B024CEA002043EA1063B3FBF2FC02FB1C331B024CEA002043EA6B
:204080001063B3FBF2FC02FB1C324CEA002000237047000070B504000D0000266878002832
:2040A00020D0012828D0032821D005280BD0062804D0082811D009280AD022E02900200062
:2040C00000F002F921E02900200000F0ADF91CE02900200000F0D8F917E02900200000F0DF
:2040E00043FA12E02900200000F064FA0DE02900200000F07DFA08E02900200000F08BFAB7
:2041000003E02900200000F0B7FA3000C0B270BD70B505000E00002495F8FC01032817D10A
:20412000307902280FDA31002800D5F8142292689047F08800280AD1E4B2002C07D1280059
:2041400000F017FB03E03100280000F095FA03E03100280000F090FA002070BD2DE9F04158
:2041600006000F005FF00008BC88387810F06000202807D139003000D6F814229268904721
:2041800000209FE07878002861D0012832D0032840F0968096F8FC01022802D003280CD00D
:2041A00023E0E4B2002C07D0E4B2802C04D02100C9B23000FFF7A1F91BE0788800280AD1F3
:2041C000E4B2002C07D0E4B2802C04D02100C9B23000FFF792F939003000D6F8142292687C
:2041E0009047300000F0C5FA03E03900300000F043FA65E096F8FC01022802D003280CD0BD
:2042000020E0E4B2002C07D0E4B2802C04D02100C9B23000FFF771F918E07888002810D1C2
:2042200014F07F0F0AD02100C9B23000FFF770F939003000D6F8142292689047300000F089
:2042400098FA03E03900300000F016FA38E096F8FC01022802D0032809D02CE014F07F0F3F
:2042600004D02100C9B23000FFF747F927E0E4B2200607D5E4B214F07F000001304410F13A
:20428000140506E0E4B214F07F000001304410F582752100C9B23000FFF745F9002802D09B
:2042A0000120286001E00020286002222900300000F01BFA03E03900300000F0DDF9FFE752
:2042C0004046C0B2BDE8F0817CB504000D00688880B2000AC0B2012808D002280ED00328BC
:2042E00021D0062865D0072872D082E06946207CD4F810221268904706007FE0207C0028D4
:2043000008D16846D4F81412896A884706000220707007E06846D4F81412C96A88470600CB
:20432000022070706AE0A878002808D0022816D00DD3042823D01AD3052828D02FE0694632
:20434000207CD4F8102252689047060030E06946207CD4F8102292689047060028E0694645
:20436000207CD4F81022D2689047060020E06946207CD4F8102212699047060018E0694644
:20438000207CD4F8102252699047060010E06946207CD4F8102292699047060008E06A4642
:2043A0006988C9B22000D4F814329B6B9847060024E0207C002806D16846D4F81412496B81
:2043C000884706001AE02900200000F055F92AE0207C002808D16846D4F81412096B8847FD
:2043E00006000720707009E02900200000F044F919E02900200000F03FF914E0BDF800003E
:20440000002810D0E88800280DD0BDF80000E988884202D3E888ADF80000BDF8002031003F
:20442000200000F062F973BD70B505000E00B088002824D1F088002821D1B07810F07F001B
:20444000040095F8FC01032804D13100280000F013F918E085F8FE412100C9B22800FFF70B
:204460007CF8280000F085F9E4B2002C03D0022085F8FC0107E0012085F8FC0103E031006B
:20448000280000F0F9F870BD38B504000D0068883449087033480078022804DB29002000BE
:2044A00000F0EAF85CE094F8FC01022802D003281ED051E02B480078002815D0294800783E
:2044C0006060032084F8FC01264801782000FFF722FB022804D12900200000F0CDF83FE04A
:2044E000200000F046F902E0200000F042F937E01C48007800280ED1022084F8FC0119484A
:2045000000786060174801782000FFF71AFB200000F02FF91FE0134800786168884217D0DC
:204520006168C9B22000FFF70CFB0E48007860600C4801782000FFF7EEFA022804D1290099
:20454000200000F099F80BE0200000F012F902E0200000F00EF903E02900200000F08CF81B
:2045600031BD0000080B002038B504000D00E888012804D02900200000F07EF819E094F87B
:20458000FC01022802D0032809D00EE00020A060012214F10801200000F0A7F809E0012224
:2045A000211D200000F0A1F803E02900200000F063F831BD38B504000D0094F8FC01801E8A
:2045C000012810D80120E060D4F80402002803D0E06850F00200E060022214F10C0120007C
:2045E00000F083F803E02900200000F045F831BD38B504000D00688801280BD10120C4F839
:20460000040229002000D4F8142292689047200000F0AFF831BD38B504000D0094F8FC014C
:20462000801E01280FD8688801280BD10020C4F8040229002000D4F81422926890472000B9
:2046400000F097F803E02900200000F015F831BD0A7802704A7842708A78CB781B029A1848
:2046600042800A794B791B029A1882808A79CB791B029A18C280704738B504000D008021B2
:204680002000FEF73AFF00212000FEF736FF31BDF8B504000D0016000027002C1AD0200042
:2046A00000F019F84000801C30803088FFB2E8557F1C0320FFB2E8557F1C2078002809D0E7
:2046C0002078FFB2E855641C7F1C0020FFB2E8557F1CF2E7F1BD020000201178002902D063
:2046E000401C521CF9E7C0B2704770B504000D0016000220C4F8F401B6B2A661B6B2E661AA
:2047000033009BB22A0000212000FEF731FF002070BD70B504000D00160033009BB22A0046
:2047200000212000FEF724FF002070BD70B504000D0016000320C4F8F401B6B2C4F8086126
:20474000B6B2C4F80C6133009BB22A0000212000FEF71EFF002070BD70B504000D00160032
:2047600033009BB22A0000212000FEF711FF002070BD10B504000420C4F8F4010023002219
:2047800000212000FEF7F4FE002010BD10B504000520C4F8F4010023002200212000FEF7EA
:2047A000F7FE002010BD000070470000BFF34F8FDFF86408016811F4E061DFF8600801435B
:2047C000DFF854080160BFF34F8F00BFFDE770B504000D004FF48360FCF76AFBC4F8180288
:2047E000D4F81802002801D102202FE0D4F818620020C6F81404DFF82808C6F81004002073
:20480000C6F808040020C6F80C04002086F80704022086F80004002086F80104002086F852
:204820000204002086F80304002086F80404022086F80504002086F80604D4F81C02406844
:204840008047002801D0022000E0002070BD70B504000D00D4F818620020C6F808040020C3
:20486000C6F80C04022086F80004002086F80104022086F80504D4F8180200280AD0D4F8C6
:204880001C0280688047D4F8180200F0D3FB0020C4F81802002070BD2DE9F84304000D0002
:2048A000002600275FF00008D4F81892287810F06000C0B2002834D020286BD168780028B4
:2048C00023D002280CD006D3042812D00DD3062817D012D31EE02900200000F086F91FE069
:2048E0002900200000F0CCF91AE0200000F06AFA16E0200000F0E6FA12E0200000F016FB53
:204900000EE0200000F01DFB0AE02900200000F027F905E029002000FFF7AEFE0220804686
:2049200038E06878062804D00A2818D00B281DD02AE0688880B2000A80B2212808D1DFF8E2
:20494000E4060600E8880A2801DB092700E0EF883A0092B231002000FFF7C7FE1AE00122BB
:2049600009F214412000FFF7C0FE13E0A878002803D1A878C9F8140405E029002000FFF7E7
:204980007BFE0220804605E029002000FFF774FE022080464046C0B2BDE8F28301001B20EA
:2049A0000880DFF8840670470200002070470100002070477CB50400D4F8186296F8000499
:2049C000042840F09780D6F80804002860D13078002803D1D6F80C04012873D03078212852
:2049E0001CD1D6F80C04052818D17078C6F81004D6F81004B17810EB0120C6F81004D6F855
:204A00001004F17810EB0140C6F81004D6F81004317910EB0160C6F8100453E0307841280D
:204A200025D1D6F80C04052821D17078C6F81004D6F81004B17810EB0120C6F81004D6F802
:204A40001004F17810EB0140C6F81004D6F81004317910EB0160C6F81004D6F81004D4F863
:204A60001C12C968884700282CD002204AE00020C6F80C040020C6F8080400208DF800001B
:204A80000120ADF8060069462000FFF7F5FD19E0D6F80804022815D3D6F80814891E4FF4DA
:204AA0008062D6F8100402FB01010D00D6F80C2429003000D4F81C321B699847002801D059
:204AC00002201FE00020C6F80C040020C6F80804032086F80004002086F80204002086F8F6
:204AE0000304002086F8040496F8000486F80504002007E096F80004072802D1200000F045
:204B000053FA002076BD010000207047020000207047020000207047020000207047010091
:204B20000A200880DFF80405704770B504000D001600EDB2072D0ADA3200DFF8F414D4F84C
:204B40001C020068FFF7A4FDDFF8E40400E0002070BD0200002901D0C2F81C120020704791
:204B600070B504000D00D4F8186296F8000402280FD096F8000403280BD096F800040528C7
:204B800007D096F80004062803D096F8000409281BD1022086F80004002086F80104002095
:204BA00086F80204002086F80304002086F8040496F8000486F80504002086F80604002045
:204BC000C6F808040020C6F80C04DFF85C04407DC00606D52000FEF78DFF2000FEF783FF50
:204BE00002E06888FDF7C0FB70BD70B504000D00D4F81862E888002821D096F80004022846
:204C000003D096F80004052814D16888C6F80804E888C6F80C04032086F8000496F80004EE
:204C200086F80504D6F80C2492B231002000FFF77DFD24E029002000FFF71EFD1FE096F8FF
:204C40000004052803D096F80004022813D1012086F80704062086F80004002086F80204BA
:204C6000002086F80304002086F8040496F8000486F8050403E029002000FFF7FDFC70BD88
:204C80002DE9F04104000D00D4F8186200275FF00008E888002800F0838096F800040228B1
:204CA00003D096F8000409286FD16888C6F80804E888C6F80C04D6F80804002821D1D6F864
:204CC0000C04042801D3022000E0092086F80004002086F80204002086F80304002086F830
:204CE000040496F8000486F8050400203070212070704120B070032231002000FFF7F5FCD4
:204D00005EE0D6F8080402282AD3092086F80004002086F80204002086F80304002086F8C2
:204D2000040496F8000486F80504D6F80814891E4FF48062D6F8100402FB01018846D6F81F
:204D40000C2431004046D4F81C325B6998470700D6F80C2492B239002000FFF7C6FC2FE046
:204D60000F2086F80004002086F80204002086F80304002086F8040496F8000486F805047A
:204D800029002000FFF778FC1AE00020C6F80C040020C6F8080429002000FFF76DFC0FE0F7
:204DA000022086F80004002086F80204002086F80304002086F8040496F8000486F8050447
:204DC000BDE8F08138B50400D4F8185295F80004032802D0062840D06DE0D5F80C04002878
:204DE0002AD0042085F80004002085F80204002085F80304002085F8040495F8000485F81A
:204E00000504D5F8080400280CD12878412809D105F201420021D5F81004D4F81C329B696E
:204E2000984719E005F201420121D5F81004D4F81C329B6998470FE0052085F800040020AB
:204E400085F80204002085F80304002085F8040495F8000485F805042DE095F807040128A1
:204E600010D1072085F80004012085F80204002085F80304002085F8040495F8000485F8AE
:204E8000050417E095F80704002813D16648007D40070FD5022085F80004002085F80204D2
:204EA000002085F80304002085F8040495F8000485F80504FFE7062205F201412000FFF735
:204EC00014FC31BDD0F8181291F800240A2A16D1022281F80024002281F80124002281F8FE
:204EE0000224002281F80324002281F8042491F8002481F80524002281F8062415E00A22D2
:204F000081F800240E2281F80124002281F80224002281F80324002281F8042491F8002433
:204F200081F80524002281F80624704738B50400D4F81852012215F580612000FFF7D5FB38
:204F400031BDD0F8181291F80024022A0FD091F80024032A0BD091F80024052A07D091F8C8
:204F60000024062A03D091F80024092A1BD1022281F80024002281F80124002281F80224FC
:204F8000002281F80324002281F8042491F8002481F80524002281F806240022C1F8082471
:204FA0000022C1F80C24704738B50400D4F81852002085F807041C48007D400710D506202D
:204FC00085F80004002085F80204002085F80304002085F8040495F8000485F8050419E054
:204FE000082085F80004002085F80204002085F80304002085F8040495F8000485F8050405
:205000002000FEF777FDD4F81C0280688047FFF7CDFBFEE731BD00000CED00E00400FA0501
:2050200000C00008A200002090000020AC000020C0090020FCF797B87CB50400002C01D10C
:205040000120ABE12078C0076CD5DFF85403006810F00C0004280BD0DFF84403006810F0D4
:205060000C0008280ED1DFF83C030068400209D5DFF834030068800354D56068002851D143
:2050800001208BE16068B0F5803F08D1DFF81803006850F48030DFF81013086023E0606803
:2050A000B0F5A02F10D1DFF80003006850F48020DFF8F4120860DFF8F002006850F480300B
:2050C000DFF8E41208600EE0DFF8DC02006830F48030DFF8D4120860DFF8CC02006830F466
:2050E0008020B1490860606800280DD0FDF756F90500AD480068800314D4FDF74FF9401B3A
:205100006528F6D3032049E1FDF748F90500A6480068800306D5FDF741F9401B6528F6D31F
:2051200003203BE12078800750D59D48006810F00C0F09D09A48006810F00C00082816D13E
:2051400098480068400212D497480068800704D5E068012801D0012020E19348006830F071
:20516000F800216950EAC1008F4908602EE0E06800281AD001208D490860FDF70FF90500AA
:2051800089480068800706D4FDF708F9401B0328F6D3032002E18448006830F0F800216955
:2051A00050EAC1008049086010E000207F490860FDF7F4F805007C480068800706D5FDF71C
:2051C000EDF8401B0328F6D30320E7E02078000724D56069002810D0012075490860FDF70D
:2051E000DDF8050073480068800717D4FDF7D6F8401B0328F6D30320D0E000206C4908601F
:20520000FDF7CCF805006B480068800706D5FDF7C5F8401B0328F6D30320BFE020784007B3
:205220006AD5002000906448006850F08050624908606148006810F08050009000985F4898
:20524000006850F480705D490860FDF7A7F806005A480068C00506D4FDF7A0F8801B032810
:20526000F6D303209AE0A068012806D15448006850F00100524908601BE0A06805280CD16B
:205280004F48006850F004004D4908604C48006850F001004A4908600BE049480068400869
:2052A0004000474908604648006830F0040044490860A06800280FD0FDF770F805004048AF
:2052C0000068800718D4FDF769F8401B41F289318842F4D3032061E0FDF760F80500384890
:2052E0000068800708D5FDF759F8401B41F289318842F4D3032051E0A06900284DD02848B2
:20530000006810F00C00082845D0A069022831D100202C490860FDF741F80600224800689D
:20532000800106D5FDF73AF8801B0328F6D3032034E0E169206A0143606A51EA8011A06A6D
:205340004008401E51EA0041E06A51EA00611548016001201B490860FDF720F8050012482F
:205360000068800119D4FDF719F8401B0328F6D3032013E0002013490860FDF70FF8050009
:2053800009480068800108D5FDF708F8401B0328F6D3032002E0012000E0002076BD00BF9B
:2053A00008380240043802400038024000004742800E47427438024040380240007000407B
:2053C0007038024060004742F8B5050000260024287810F0050F29D00020DFF840120860A0
:2053E000FCF7DCFF07008E480068000106D5FCF7D5FFC01B0328F6D3032089E06868A968BB
:20540000090751EA801187480160012083490860FCF7C4FF060082480068000106D4FCF76F
:20542000BDFF801B0328F6D3032071E0287880076DD5002000907C48006850F080507A4995
:2054400008607948006810F08050009000987748006850F4807075490860FCF79FFF0600AB
:2054600072480068C00506D4FCF798FF801B0328F6D303204CE06E48006810F4407004002D
:20548000002C25D0E86810F44070844220D06848006830F4407004000120664908600020E9
:2054A000644908606248046061480068C0070FD5FCF774FF06005E480068800708D4FCF73D
:2054C0006DFF801B41F289318842F4D303201FE0E86810F44070B0F5407F0AD156480168DB
:2054E00031F4F811EA685548024011435248016005E05148006830F4F8104F4908604C4858
:205500000068E9680905090D0843494908600020F2BD38B5FCF742FF04004148006850F044
:2055200001003F4908603E480068800706D4FCF735FF001B0328F6D303206CE0384800689E
:2055400050F0800036490860FCF728FF05000020394908603848006810F00C0F08D0FCF7AD
:205560001DFF401B41F289318842F3D3032052E0FCF714FF04002A48006830F450202849F9
:20558000086027480068800306D5FCF707FF001B6528F6D303203EE0FCF700FF0500204864
:2055A000006830F080701E4908601D480068800106D5FCF7F3FE401B0328F6D303202AE01B
:2055C000FCF7ECFE04001648006830F080601449086013480068000106D5FCF7DFFE001BD5
:2055E0000328F6D3032016E017481549086017480C49086000201649086000201549086090
:205600001048154908600F20FCF7BAFF002801D0012000E0002032BD000000006800474297
:205620000038024084380240403802400070004070380240400E474208380240FFFCFF0F3C
:20564000043802400024F40010300004003000200C38024074380240000000202DE9F8433B
:205660000600884614001D005FF00109DFF83C02007E012801D102203AE00120DFF82C12CC
:2056800008764CF2503000F050F80700FFB2002F28D1002E05D12100C9B2404600F0B0F8F8
:2056A00013E0012E05D1210089B2404600F094F80BE0022E04D12100404600F079F804E0B8
:2056C00022002B00404600F05BF84CF2503000F02CF80700DFF8D801006840084000DFF864
:2056E000D01108600020DFF8C41108763800C0B2BDE8F28300206E49096800290BD56E494B
:205700006E4A11606E496D4A116069490968002901D501210800C0B270476548006850F0B7
:205720000040634908600020704770B50400002600205E49C861FCF731FE05005D480068CB
:20574000C0030BD514F1010FF8D0002C04D0FCF725FE401B8442F1D2032010E055480068B7
:20576000C00702D50120534908605248006810F0F20F03D000F056F8012000E0002070BD04
:2057800010B44B49096831F44071494C21604849096851F44071464C21604549096851F009
:2057A0000101434C21600260011D0B6010BC70473F4A126832F440723D4B1A603C4A12688C
:2057C00052F400723A4B1A60394A126852F00102374B1A6001607047354A126832F44072EB
:2057E000334B1A60324A126852F48072304B1A602F4A126852F001022D4B1A60018070472C
:205800002B4A126832F44072294B1A60284A1268274B1A60264A126852F00102244B1A60E3
:205820000170704723480068C00608D51F48C06950F010001D49C86110201E4908601D48F7
:205840000068800608D51948C06950F008001749C86120201749086016480068400608D531
:205860001248C06950F004001049C86140201149086010480068000608D50C48C06950F05D
:2058800002000A49C86180200A49086009480068800708D50548C06950F020000349C861C7
:2058A000022004490860704700000000C00A0020103C02400C3C024023016745043C024006
:2058C000AB89EFCD38B5FCF76FFD00F04EF800F0ACF800240025B5F57A7F0FDA0221624820
:2058E000FEF7B4F8002802D10120040006E00020642801DA401CFBE76D1CECE7012C23D1BF
:205900005A4801685A480140B1F1805F1CD159480068594908605848006858490860FFF711
:20592000F8FD002056490860002056490860002055490860012080F310884C48006880F363
:2059400008884E4800688047002250495048FEF7A3F850494E48FEF7BBF84F494C48FFF716
:20596000F8F84B48FEF7BFF8FEE780B596B0002000904A48006850F0805048490860474856
:20598000006810F0805000900098002000904448006850F48040424908604148006810F417
:2059A00080400090009809200A905FF480300B9001200F90022010905FF480001190042084
:2059C0001290A820139002201490072015900AA8FFF732FB0F200590022006900020079020
:2059E0004FF4A05008904FF480500990052105A8FDF722FE022001904FF40070049001A8A6
:205A0000FFF7E2FCFDF7BDFE4FF47A71B0FBF1F0FCF78EFD0420FCF791FD002200215FF094
:205A2000FF30FCF769FD17B000BD80B586B0002000901C48006850F004001A490860194803
:205A4000006810F00400009000980220019000200290022003900220049001A90248FDF7FA
:205A6000E7FE07B000BD00000008024000C000080000FC1F04C00008FC0A0020F80A00208C
:205A800010E000E014E000E018E000E004000020C404002054000020B80000204038024078
:205AA00000700040303802402DE9F04105000E005FF001080027DFF8B401007E012801D1AE
:205AC00002204CE00120DFF8A41108764CF25030FFF72BFE0400E4B2002C3AD15FF0FF3021
:205AE00030602868012812D169682869C0B200F038F84CF25030FFF718FE0400DFF8700170
:205B0000006830F00400DFF8681108601FE0A8680700E968A86841188F4218D22969C9B2A9
:205B2000380000F034F84CF25030FFF7FEFD0400DFF83C01006830F0FA00DFF83411086044
:205B4000E4B2002C01D0376001E07F1CE1E700F054F80020DFF8141108762000C0B2BDE8CA
:205B6000F081434A126832F44072414B1A60404A126852F004023E4B1A603D4A1268C0B20D
:205B8000030253F480331A43394B1A60704710B40023C9B2002901D100220DE0C9B20129E3
:205BA00002D14FF4807207E0C9B2022902D14FF4007201E04FF440722D4B1B6833F440731D
:205BC0002B4C23602A4B1B681343294C2360284B1B6833F0F803264C2360254B1B68C400C5
:205BE00054F002042343224C2360214B1B6853F480331F4C236010BC70471E480068800557
:205C000017D51C48006830F400701A4908601948006850F40060174908601648006830F44E
:205C20000060144908601348006850F400701149086010480068400517D50E48006830F433
:205C400080600C4908600B48006850F48050094908600848006830F480500649086005486E
:205C6000006850F48060034908607047C00A0020103C0240003C024080B5FFF73BFD0020B4
:205C800002BD80B5FFF749FD002002BD70B586B00400002500200090200000F054F806005F
:205CA0000020019002200590039601200490694601A8FFF7F9FE0100C9B2002901D0012052
:205CC00000E0002006B070BDF8B504000D00160000200027B74212D2E259002305EB070193
:205CE0000220FFF7BBFC002807D1E059E959884201D0022004E03F1DECE7012000E0002069
:205D0000F2BD30B4030000201D000024944204D2287808556D1C641CF8E7080030BC704750
:205D20000300C9B2012906D132205070002090700020D07005E0322050700020907000201B
:205D4000D07000207047010000222D48814204D2B1F1006F01D3002050E02A48814204D2BB
:205D60002748814201D3012048E02748814204D22448814201D3022040E02448814204D282
:205D80002148814201D3032038E02148814204D21E48814201D3042030E01E48814204D296
:205DA0001B48814201D3052028E01B48814204D21848814201D3062020E01848814204D2AA
:205DC0001548814201D3072018E01548814204D21248814201D3082010E01248814204D2BE
:205DE0000F48814201D3092008E00F48814204D20C48814201D30A2000E00B2070470000DD
:205E0000004000080080000800C000080000010800000208000004080000060800000808AD
:205E200000000A0800000C0800000E08020012200880344870470200042008803248704758
:205E400038B504000D00E4B2002C05D12A002F492F48FEF71DFC04E02A002C492D48FEF798
:205E600017FC2A4832BD38B504000D002A0027492948FEF70DFC254832BD38B504000D004D
:205E80001A20288000F028F8244832BD38B504000D00E4B2002C05D12A001C492048FEF733
:205EA000F7FB04E02A0019491D48FEF7F1FB174832BD38B504000D00E4B2002C05D12A002C
:205EC00012491848FEF7E4FB04E02A000F491548FEF7DEFB0D4832BD70B513480468134817
:205EE0000568134806683419002C09D008221149200000F023F804220F49280000F01EF8BF
:205F000070BD00002000002034000020C0080020A8610008B8610008846100083800002061
:205F2000E8610008C8610008107AFF1F147AFF1F187AFF1F3A0000204A00002030B4002310
:205F4000002423001500DBB2EDB2AB4218D203001B0F0A2B06D203001B0F3033E4B201F889
:205F6000143005E003001B0F3733E4B201F8143000010023E4B201EB44056B70641CE0E77D
:205F800030BC70471248006850F47000104908601048006850F001000E49086000200E49F0
:205FA00008600C4801680D4801400A4801600C480C4908600748006830F480200549086031
:205FC0000020094908605FF0006008490860704788ED00E00038024008380240FFFFF6FE85
:205FE00010300024043802400C38024008ED00E040496E7465726E616C20466C61736820B9
:020000040800F2
:2060000020202F307830383030303030302F30332A3031364B612C30312A3031364B672CB6
:2060200030312A3036344B672C30372A3132384B6700000019E050F8042BD30744BFA9F198
:2060400001039A18091F0023042942F8043BF9D25FEA817C134604D54FF0000CA2F800C0B1
:206060009B1CC90744BF0021197050F8041B0029E1D1704730B5016884684218416802EBC9
:206080005103C9070BD54C4409E012F9011B12F8015B002904F8015B05D5491CF9D19A4290
:2060A000F3D10C3030BD491EF1D5F8E77047FEE7FEE7FEE7FEE770477047704780B500F052
:2060C00009F801BD80B50248FCF738FB01BD0000D400002002480068401C01490860704733
:2060E000000B002010B5074979441831064C7C44163404E00A68081D114488470146A14235
:20610000F8D110BD2C000000480000004EF68851CEF20001086840F470000860BFF34F8F8B
:20612000BFF36F8F4FF00070E1EE100A7047000005FFFFFF380A0000D40000200000000028
:2061400035FFFFFFFC0100007C0100000000002000F00DF8002801D0FFF7C4FFAFF30080AA
:206160000020AFF30080FFF7ADFB00F002F80120704700F001B8000007463846FBF78AFA93
:20618000FBE7000053544D6963726F656C656374726F6E69637300000000000000000000E1
:2061A000010203040607080944465520696E204853204D6F6465000044465520696E204645
:2061C00053204D6F6465000044465520496E74657266616365000000014880470148004797
:2061E000855F0008F561000844465520436F6E6669670000AFF30080FFF788FFFFF7A8FFC4
:20620000FFF7FEBFFFF7FEBFFFF7FEBFFFF7FEBFFFF7FEBFFFF7FEBFFFF7FEBFFFF7FEBFE6
:20622000FFF7FEBFFFF7FEBFFFF7FEBFFFF7FEBFFFF7FEBFFFF7FEBFFFF7FEBFFFF7FEBFC6
:20624000FFF7FEBFFFF7FEBFFFF7FEBFFFF7FEBFFFF7FEBFFFF7FEBFFFF7FEBFFFF7FEBFA6
:20626000FFF7FEBFFFF7FEBFFFF7FEBFFFF7FEBFFFF7FEBFFFF7FEBFFFF7FEBFFFF7FEBF86
:20628000FFF7FEBFFFF7FEBFFFF7FEBFFFF7FEBFFFF7FEBFFFF7FEBFFFF7FEBFFFF7FEBF66
:2062A000FFF7FEBFFFF7FEBFFFF7FEBFFFF7FEBFFFF7FEBFFFF7FEBFFFF7FEBFFFF7FEBF46
:2062C000FFF7FEBFFFF7FEBFFFF7FEBFFFF7FEBFFFF7FEBFFFF7FEBFFFF7FEBFFFF7FEBF26
:2062E000FFF7FEBFFFF7FEBFFFF7FEBFFFF7FEBFFFF7FEBFFFF7FEBFFFF7FEBFFFF7FEBF06
:20630000FFF7FEBFFFF7FEBFFFF7FEBFFFF7FEBFFFF7FEBFFFF7FEBFFFF7FEBFFFF7FEBFE5
:20632000FFF7FEBFFFF7FEBFFFF7FEBFFFF7FEBFFFF7FEBFFFF7FEBFFFF7FEBFFFF7FEBFC5
:20634000230024F4002D5E0008375E0008675E0008415E00087B5E00088D5E0008B35E0079
:206360000812010002FD001240830411DF0002010203010000040309041A03E60046CF47BE
:2063800000084F48000899480008B5490008AF490008A9490008194B0008074B00080D4B4F
:2063A0000008134B00089D4900089D4900089D4900081F4B00082B4B000809021B0001018D
:2063C00002C0320904FD0011FE01020609210BFF0000041A01000A060002FD00014001FD06
:1E63E000001BF05F0008795C0008835C00088D5C0008C95C0008035D0008215D00085D
:020000040800F2
:20C0000000080010B17F090879B806089D6909087BB8060883B806088BB806080000000096
:20C0200000000000000000000000000093B8060895B806080000000075D101080FCE010817
:20C04000E9F90908EDF90908F1F90908F5F90908F9F9090897B80608FDF9090801FA090889
:20C0600005FA090809FA0908C5B806080DFA090811FA090815FA090819FA09081DFA090871
:20C08000CFB80608D9B8060821FA090825FA090829FA09082DFA090831FA0908E3B80608BF
:20C0A00035FA090839FA09083DFA090841FA090899B8060845FA090849FA09084DFA09080D
:20C0C00051FA090855FA090859FA09085DFA090861FA0908B1B80608BBB8060865FA090804
:20C0E00069FA09086DFA090871FA090875FA090879FA09087DFA090881FA090885FA090830
:20C1000089FA09088DFA090891FA0908A3B8060895FA090899FA09089DFA0908A1FA090856
:20C12000A5FA0908A9FA090801B90608ADFA0908B1FA0908B5FA0908B9FA0908BDFA090813
:20C14000C1FA0908C5FA0908C9FA0908ADB80608CDFA0908D1FA09080BB9060815B906089A
:20C16000D5FA0908D9FA0908DDFA0908E1FA0908E5FA0908AFB80608E9FA090800000000CE
:20C18000EDFA0908F1FA090810B50400DFF8F00B8089012830D1E4B2002C02D0E4B2012C86
:20C1A00004D1DFF8E00B03F074F995E0E4B2022C04D1DFF8D40B03F06CF98DE0E4B2032C3A
:20C1C00004D1DFF8C80B03F064F985E0E4B2042C02D0E4B2052C04D1DFF8B40B03F059F91C
:20C1E0007AE0E4B2062C02D0E4B2072C74D1DFF8A00B03F04EF96FE0DFF8840B8089022899
:20C200002BD1E4B2002C02D0E4B2012C04D1DFF8F80B03F03EF95FE0E4B2022C02D0E4B287
:20C22000032C04D1DFF8E40B03F033F954E0E4B2042C02D0E4B2052C04D1DFF8D40B03F004
:20C2400028F949E0E4B2062C02D0E4B2072C43D1DFF8BC0B03F01DF93EE0E4B2002C04D1C1
:20C26000DFF8B00B03F015F936E0E4B2012C04D1DFF8A40B03F00DF92EE0E4B2022C04D157
:20C28000DFF8980B03F005F926E0E4B2032C04D1DFF88C0B03F0FDF81EE0E4B2042C04D1A4
:20C2A000DFF8800B03F0F5F816E0E4B2052C04D1DFF8740B03F0EDF80EE0E4B2062C04D1F1
:20C2C000DFF8680B03F0E5F806E0E4B2072C03D1DFF8180D03F0DDF810BDF8B52DED028BDC
:20C2E000B0EE408A04000D0016001F002B002200DFF83C1B300003F017F918EE100A03F0CF
:20C3000033F902000B00DFF8E81C380003F00CF9BDEC028BF1BD000070B52DED028BB0EE8B
:20C32000408A04000D00160018EE100A03F01CF931F0004103F03CF908EE900A9FED720AC2
:20C34000F4EE408AF1EE10FA08D533002A0021006EA0B0EE480AFFF7C0FFADE09FED6C0AAB
:20C3600088EE008A9FED6A0AC8EE808A18EE900A03F0FAF841EC100B03F04EF951EC100B9E
:20C380000022DFF8B03A03F087F908D233002A00210060A0B0EE480AFFF79FFF8CE09FED73
:20C3A0005C0A88EE008A9FED5A0AC8EE808A18EE900A03F0D9F841EC100B03F02DF951EC65
:20C3C000100B0022DFF86C3A03F066F908D233002A002100B9A0B0EE480AFFF77EFF6BE0F2
:20C3E0009FED4B0A88EE008A9FED490AC8EE808A18EE900A03F0B8F841EC100B03F00CF93A
:20C4000051EC100B0022DFF82C3A03F045F908D233002A002100AAA0B0EE480AFFF75DFF50
:20C420004AE09FED3B0A88EE008A9FED390AC8EE808A18EE900A03F097F841EC100B03F015
:20C44000EBF851EC100B0022DFF8E83903F024F908D233002A0021009AA0B0EE480AFFF7FF
:20C460003CFF29E09FED2A0A88EE008A9FED280AC8EE808A18EE900A03F076F841EC100BF1
:20C4800003F0CAF851EC100B0022DFF8A83903F003F908D233002A0021008BA0B0EE480A53
:20C4A000FFF71BFF08E019A1280003F03DF8DFF8A81B300003F038F8BDEC028B70BD10B565
:20C4C000012002F06FFFDFF8940B02F0ADFFDFF88C0B02F0A2FF222340F2DF12002100201D
:20C4E00003F00FF9DFF8780B02F09EFF0024032C09DA22220021DFF86C0B50F8240003F010
:20C5000055FA641CF3E710BD00401C460000000000007A446B0000002DE9FE43DFF8480B59
